:020000040800F2
:10000000002800205D220008492000084F20000839
:10001000552000085B200008612000080000000057
:100020000000000000000000000000006720000841
:1000300073200008000000007F2000088B200008CB
:10004000A5220008A5220008A5220008A522000874
:10005000A5220008A5220008A52200089720000874
:10006000A5220008A5220008A5220008A522000854
:10007000A5220008A5220008A5220008A522000844
:10008000A5220008A5220008A5220008A522000834
:10009000A5220008A5220008A5220008A522000824
:1000A000A5220008A5220008A5220008A522000814
:1000B000A5200008A522000800000000A5220008D5
:1000C000A52200080000000000000000A522000892
:1000D00000000000A5220008A52200080000000082
:1000E000A5220008A5220008A522000800000000A3
:1000F0000000000000000000000000000000000000
:0C01000000000000000000005FF808F1A3
:1001100010B5054C237833B9044B13B10448AFF341
:1001200000800123237010BDE801002000000000C2
:100130005877000808B5034B1BB103490348AFF3D8
:10014000008008BD00000000EC0100205877000886
:10015000034613F8012B002AFBD1181A0138704707
:1001600081F0004102E000BF83F0004330B54FEA68
:1001700041044FEA430594EA050F08BF90EA020FD5
:100180001FBF54EA000C55EA020C7FEA645C7FEA68
:10019000655C00F0E2804FEA5454D4EB5555B8BF8B
:1001A0006D420CDD2C4480EA020281EA030382EAFC
:1001B000000083EA010180EA020281EA0303362D8E
:1001C00088BF30BD11F0004F4FEA01314FF4801C61
:1001D0004CEA113102D0404261EB410113F0004F73
:1001E0004FEA03334CEA133302D0524263EB43032A
:1001F00094EA050F00F0A780A4F10104D5F1200EC8
:100200000DDB02FA0EFC22FA05F2801841F1000122
:1002100003FA0EF2801843FA05F359410EE0A5F1F6
:1002200020050EF1200E012A03FA0EFC28BF4CF027
:10023000020C43FA05F3C01851EBE37101F00045DD
:1002400007D54FF0000EDCF1000C7EEB00006EEBEA
:100250000101B1F5801F1BD3B1F5001F0CD3490874
:100260005FEA30004FEA3C0C04F101044FEA4452CB
:1002700012F5800F80F09A80BCF1004F08BF5FEA52
:10028000500C50F1000041EB045141EA050130BD32
:100290005FEA4C0C404141EB0101013C28BFB1F544
:1002A000801FE9D291F0000F04BF01460020B1FA8F
:1002B00081F308BF2033A3F10B03B3F120020CDA62
:1002C0000C3208DD02F1140CC2F10C0201FA0CF040
:1002D00021FA02F10CE002F11402D8BFC2F1200CA5
:1002E00001FA02F120FA0CFCDCBF41EA0C0190405B
:1002F000E41AA2BF01EB0451294330BD6FEA0404A4
:100300001F3C1CDA0C340EDC04F11404C4F120028E
:1003100020FA04F001FA02F340EA030021FA04F3A0
:1003200045EA030130BDC4F10C04C4F1200220FAF7
:1003300002F001FA04F340EA0300294630BD21FA35
:1003400004F0294630BD94F0000F83F4801306BFFB
:1003500081F480110134013D4EE77FEA645C18BFEF
:100360007FEA655C29D094EA050F08BF90EA020F86
:1003700005D054EA000C04BF1946104630BD91EA7E
:10038000030F1EBF0021002030BD5FEA545C05D181
:100390004000494128BF41F0004130BD14F58004C0
:1003A0003CBF01F5801130BD01F0004545F0FE4134
:1003B00041F470014FF0000030BD7FEA645C1ABF69
:1003C000194610467FEA655C1CBF0B46024650EAA0
:1003D000013406BF52EA033591EA030F41F40021CC
:1003E00030BD00BF90F0000F04BF0021704730B552
:1003F0004FF4806404F132044FF000054FF0000127
:1004000050E700BF90F0000F04BF0021704730B5E7
:100410004FF4806404F1320410F0004548BF4042BC
:100420004FF000013EE700BF42004FEAE2014FEA11
:1004300031014FEA02701FBF12F07F4393F07F4FEC
:1004400081F06051704732F07F4208BF704793F0EF
:100450007F4F04BF41F40021704730B54FF4607402
:1004600001F0004521F000411CE700BF50EA010205
:1004700008BF704730B54FF000050AE050EA0102AE
:1004800008BF704730B511F0004502D5404261EB1E
:1004900041014FF4806404F132045FEA915C3FF45F
:1004A000D8AE4FF003025FEADC0C18BF03325FEAFC
:1004B000DC0C18BF033202EBDC02C2F1200300FAAD
:1004C00003FC20FA02F001FA03FE40EA0E0021FAD2
:1004D00002F11444BDE600BF70B54FF0FF0C4CF4C0
:1004E000E06C1CEA11541DBF1CEA135594EA0C0F72
:1004F00095EA0C0F00F0DEF82C4481EA030621EAAD
:100500004C5123EA4C5350EA013518BF52EA0335E7
:1005100041F4801143F4801338D0A0FB02CE4FF099
:100520000005E1FB02E506F00042E0FB03E54FF0C9
:100530000006E1FB03569CF0000F18BF4EF0010EC1
:10054000A4F1FF04B6F5007F64F5407404D25FEABD
:100550004E0E6D4146EB060642EAC62141EA555170
:100560004FEAC52040EA5E504FEACE2EB4F1FD0CB2
:1005700088BFBCF5E06F1ED8BEF1004F08BF5FEA30
:10058000500E50F1000041EB045170BD06F00046E2
:1005900046EA010140EA020081EA0301B4EB5C048F
:1005A000C2BFD4EB0C0541EA045170BD41F4801187
:1005B0004FF0000E013C00F3AB8014F1360FDEBFAC
:1005C000002001F0004170BDC4F10004203C35DA88
:1005D0000C341BDC04F11404C4F1200500FA05F30B
:1005E00020FA04F001FA05F240EA020001F00042AC
:1005F00021F0004110EBD37021FA04F642EB060122
:100600005EEA430E08BF20EAD37070BDC4F10C044B
:10061000C4F1200500FA04F320FA05F001FA04F20F
:1006200040EA020001F0004110EBD37041F10001FB
:100630005EEA430E08BF20EAD37070BDC4F1200506
:1006400000FA05F24EEA020E20FA04F301FA05F26E
:1006500043EA020321FA04F001F0004121FA04F216
:1006600020EA020000EBD3705EEA430E08BF20EAE6
:10067000D37070BD94F0000F0FD101F00046400020
:1006800041EB010111F4801F08BF013CF7D041EAA2
:10069000060195F0000F18BF704703F000465200A6
:1006A00043EB030313F4801F08BF013DF7D043EA77
:1006B0000603704794EA0C0F0CEA135518BF95EA2D
:1006C0000C0F0CD050EA410618BF52EA4306D1D1B4
:1006D00081EA030101F000414FF0000070BD50EAD3
:1006E000410606BF1046194652EA430619D094EA5D
:1006F0000C0F02D150EA013613D195EA0C0F05D147
:1007000052EA03361CBF104619460AD181EA03019A
:1007100001F0004141F0FE4141F470014FF0000052
:1007200070BD41F0FE4141F4780170BD70B54FF0ED
:10073000FF0C4CF4E06C1CEA11541DBF1CEA13556D
:1007400094EA0C0F95EA0C0F00F0A7F8A4EB05044F
:1007500081EA030E52EA03354FEA013100F0888046
:100760004FEA03334FF0805545EA131343EA12630F
:100770004FEA022245EA111545EA10654FEA0026C4
:100780000EF000419D4208BF964244F1FD0404F57D
:10079000407402D25B084FEA3202B61A65EB0305D9
:1007A0005B084FEA32024FF480104FF4002CB6EB96
:1007B000020E75EB030E22BFB61A754640EA0C0016
:1007C0005B084FEA3202B6EB020E75EB030E22BF56
:1007D000B61A754640EA5C005B084FEA3202B6EB97
:1007E000020E75EB030E22BFB61A754640EA9C0056
:1007F0005B084FEA3202B6EB020E75EB030E22BF26
:10080000B61A754640EADC0055EA060E18D04FEAE3
:10081000051545EA16754FEA06164FEAC30343EA83
:1008200052734FEAC2025FEA1C1CC0D111F4801F50
:100830000BD141EA00014FF000004FF0004CB6E749
:1008400011F4801F04BF01430020B4F1FD0C88BFE8
:10085000BCF5E06F3FF6AFAEB5EB030C04BFB6EBF3
:10086000020C5FEA500C50F1000041EB045170BDE6
:100870000EF0004E4EEA113114EB5C04C2BFD4EB13
:100880000C0541EA045170BD41F480114FF0000E97
:10089000013C90E645EA060E8DE60CEA135594EA13
:1008A0000C0F08BF95EA0C0F3FF43BAF94EA0C0F16
:1008B0000AD150EA01347FF434AF95EA0C0F7FF48B
:1008C00025AF104619462CE795EA0C0F06D152EADF
:1008D00003353FF4FDAE1046194622E750EA4106C3
:1008E00018BF52EA43067FF4C5AE50EA41047FF4D4
:1008F0000DAF52EA43057FF4EBAE12E74FF0FF3C39
:1009000006E000BF4FF0010C02E000BF4FF0010C09
:100910004DF804CD4FEA410C7FEA6C5C4FEA430C82
:1009200018BF7FEA6C5C1BD001B050EA410C0CBFD1
:1009300052EA430C91EA030F02BF90EA020F002033
:10094000704710F1000F91EA030F58BF994208BF9A
:1009500090422CBFD8176FEAE37040F00100704757
:100960004FEA410C7FEA6C5C02D150EA013C07D1AE
:100970004FEA430C7FEA6C5CD6D152EA033CD3D0F9
:100980005DF8040B704700BF8446104662468C46F3
:100990001946634600E000BF01B5FFF7B7FF002826
:1009A00048BF10F1000F01BD4DF808EDFFF7F4FF4F
:1009B0000CBF012000205DF808FB00BF4DF808EDDA
:1009C000FFF7EAFF34BF012000205DF808FB00BFFD
:1009D0004DF808EDFFF7E0FF94BF012000205DF81F
:1009E00008FB00BF4DF808EDFFF7CEFF94BF0120D4
:1009F00000205DF808FB00BF4DF808EDFFF7C4FFCD
:100A000034BF012000205DF808FB00BF4FEA410C15
:100A10007FEA6C5C02D150EA013C0AD14FEA430CF8
:100A20007FEA6C5C02D152EA033C02D14FF0000035
:100A300070474FF0010070474FEA410212F5001273
:100A400015D211D56FF47873B3EB625212D94FEA15
:100A5000C12343F0004343EA505311F0004F23FAFF
:100A600002F018BF404270474FF00000704750EA54
:100A7000013005D111F0004008BF6FF00040704711
:100A80004FF00000704700BF4FEA4102B2F1E0436F
:100A900024BFB3F5001CDCF1FE5C0DD901F0004C65
:100AA0004FEAC0024CEA5070B2F1004F40EB8300B5
:100AB00008BF20F00100704711F0804F21D113F1E1
:100AC0003872BCBF01F00040704741F480114FEA1A
:100AD0005252C2F11802C2F1200C10FA0CF320FAA3
:100AE00002F018BF40F001004FEAC1234FEAD323C0
:100AF00003FA0CFC40EA0C0023FA02F34FEA43032A
:100B0000CCE77FEA625307D150EA01331EBF4FF0B2
:100B1000FE4040F44000704701F0004040F0FE40CD
:100B200040F40000704700BF80F0004002E000BFCA
:100B300081F0004142001FBF5FEA410392EA030FC8
:100B40007FEA226C7FEA236C6AD04FEA1262D2EB12
:100B50001363C1BFD218414048404140B8BF5B4217
:100B6000192B88BF704710F0004F40F4000020F0B0
:100B70007F4018BF404211F0004F41F4000121F0C6
:100B80007F4118BF494292EA030F3FD0A2F1010210
:100B900041FA03FC10EB0C00C3F1200301FA03F14E
:100BA00000F0004302D5494260EB4000B0F5000F71
:100BB00013D3B0F1807F06D340084FEA310102F130
:100BC0000102FE2A51D2B1F1004F40EBC25008BFE2
:100BD00020F0010040EA03007047490040EB0000AC
:100BE000013A28BFB0F5000FEDD2B0FA80FCACF1AD
:100BF000080CB2EB0C0200FA0CF0AABF00EBC250DA
:100C000052421843BCBFD0401843704792F0000FC7
:100C100081F4000106BF80F400000132013BB5E71A
:100C20004FEA41037FEA226C18BF7FEA236C21D090
:100C300092EA030F04D092F0000F08BF08467047F5
:100C400090EA010F1CBF0020704712F07F4F04D1C3
:100C5000400028BF40F00040704712F100723CBFD6
:100C600000F50000704700F0004343F0FE4040F400
:100C7000000070477FEA226216BF08467FEA2363BE
:100C80000146420206BF5FEA412390EA010F40F4A9
:100C9000800070474FF0000304E000BF10F00043F5
:100CA00048BF40425FEA000C08BF704743F09643DC
:100CB00001464FF000001CE050EA010208BF7047F7
:100CC0004FF000030AE000BF50EA010208BF70477E
:100CD00011F0004302D5404261EB41015FEA010C93
:100CE00002BF84460146002043F0B64308BFA3F18B
:100CF0008053A3F50003BCFA8CF2083AA3EBC2536D
:100D000010DB01FA02FC634400FA02FCC2F120028B
:100D1000BCF1004F20FA02F243EB020008BF20F0C2
:100D20000100704702F1200201FA02FCC2F1200228
:100D300050EA4C0021FA02F243EB020008BF20EA1D
:100D4000DC7070474FF0FF0C1CEAD0521EBF1CEA4B
:100D5000D15392EA0C0F93EA0C0F6FD01A4480EA39
:100D6000010C400218BF5FEA41211ED04FF0006322
:100D700043EA501043EA5111A0FB01310CF000404E
:100D8000B1F5000F3EBF490041EAD3715B0040EA74
:100D9000010062F17F02FD2A1DD8B3F1004F40EB44
:100DA000C25008BF20F00100704790F0000F0CF017
:100DB000004C08BF49024CEA502040EA51207F3ADB
:100DC000C2BFD2F1FF0340EAC250704740F40000B6
:100DD0004FF00003013A5DDC12F1190FDCBF00F0A7
:100DE00000407047C2F10002410021FA02F1C2F155
:100DF000200200FA02FC5FEA310040F1000053EAF1
:100E00004C0308BF20EADC70704792F0000F00F03E
:100E1000004C02BF400010F4000F013AF9D040EA44
:100E20000C0093F0000F01F0004C02BF490011F4D8
:100E3000000F013BF9D041EA0C018FE70CEAD153D6
:100E400092EA0C0F18BF93EA0C0F0AD030F0004C56
:100E500018BF31F0004CD8D180EA010000F000400A
:100E6000704790F0000F17BF90F0004F084691F0C8
:100E7000000F91F0004F14D092EA0C0F01D1420202
:100E80000FD193EA0C0F03D14B0218BF084608D1CB
:100E900080EA010000F0004040F0FE4040F4000015
:100EA000704740F0FE4040F4400070474FF0FF0CA8
:100EB0001CEAD0521EBF1CEAD15392EA0C0F93EAEF
:100EC0000C0F69D0A2EB030280EA010C49024FEA41
:100ED000402037D04FF0805343EA111143EA1013FA
:100EE0000CF000408B4238BF5B0042F17D024FF4B2
:100EF000000C8B4224BF5B1A40EA0C00B3EB510F8D
:100F000024BFA3EB510340EA5C00B3EB910F24BF75
:100F1000A3EB910340EA9C00B3EBD10F24BFA3EBFA
:100F2000D10340EADC001B0118BF5FEA1C1CE0D1C2
:100F3000FD2A3FF650AF8B4240EBC25008BF20F075
:100F4000010070470CF0004C4CEA50207F32C2BFC9
:100F5000D2F1FF0340EAC250704740F400004FF066
:100F60000003013A37E792F0000F00F0004C02BF97
:100F7000400010F4000F013AF9D040EA0C0093F061
:100F8000000F01F0004C02BF490011F4000F013BBB
:100F9000F9D041EA0C0195E70CEAD15392EA0C0F23
:100FA00008D142027FF47DAF93EA0C0F7FF470AF5B
:100FB000084676E793EA0C0F04D14B023FF44CAF9E
:100FC00008466EE730F0004C18BF31F0004CCAD133
:100FD00030F000427FF45CAF31F000437FF43CAF6F
:100FE0005FE700BF4FF0FF3C06E000BF4FF0010C91
:100FF00002E000BF4FF0010C4DF804CD4FEA400273
:101000004FEA41037FEA226C18BF7FEA236C11D0BC
:1010100001B052EA530C18BF90EA010F58BFB2EB6F
:10102000030088BFC81738BF6FEAE17018BF40F0EF
:10103000010070477FEA226C02D15FEA402C05D1A3
:101040007FEA236CE4D15FEA412CE1D05DF8040B28
:10105000704700BF844608466146FFE70FB5FFF7BB
:10106000C9FF002848BF10F1000F0FBD4DF808ED73
:10107000FFF7F4FF0CBF012000205DF808FB00BF64
:101080004DF808EDFFF7EAFF34BF012000205DF8BE
:1010900008FB00BF4DF808EDFFF7E0FF94BF01200B
:1010A00000205DF808FB00BF4DF808EDFFF7D2FF08
:1010B00094BF012000205DF808FB00BF4DF808ED4B
:1010C000FFF7C8FF34BF012000205DF808FB00BF18
:1010D00080B58EB00AAFF860084611461A4603463E
:1010E0007B810B463B811346FB801D4B1B78002BFD
:1010F00019D039897A8900230893002307930023A4
:10110000069300230593BB8C04933B8C0393BB8B0A
:1011100002933B8B0193FB8800930B46F9680120F7
:1011200000F020F818E039897A8900230893002319
:1011300007930023069300230593BB8C04933B8CF9
:101140000393BB8B02933B8B0193FB8800930B466D
:10115000F968002000F006F800BF1037BD4680BDDA
:101160000000002080B485B000AFB96011461A4677
:101170000346FB730B46BB811346FB80194ABB89B0
:101180001380194AFB881380184A3B8B1380184A36
:10119000BB681360174ABB8B1380164A3B8C538085
:1011A000144ABB8C9380134A3B8DD380114ABB8D6C
:1011B0001381104A3B8E53810E4ABB8E93810D4A98
:1011C0003B8FD381FB7B002B03D00B4B00221A708B
:1011D00002E0094B10221A7000BF1437BD4680BCD4
:1011E000704700BF06020020080200200A0200200B
:1011F0001C0200200C0200202002002080B586B0D6
:1012000000AF03460A46FB711346BB71BB79012B45
:1012100006D9774B1B7843F00803DAB2744B1A7087
:10122000744ABB791370FA79FB794033402100206E
:1012300000F062F9704B1B78002B09D0BB79012BB1
:1012400006D16B4B1B7843F00403DAB2684B1A707B
:1012500000F0E4F803237B610123FB60674B1B78FC
:10126000002B1BD0664B1A88664B1B8813439AB21F
:10127000654B1B8813439AB2644B1B8813439AB285
:10128000624B5B8813439AB2604B9B8813439AB2BC
:101290005E4BDB8813439BB2BB602AE0584B1A8835
:1012A000584B1B8813439AB2574B1B8813439AB26F
:1012B000564B1B8813439AB2544B5B8813439AB224
:1012C000524B9B8813439AB2504BDB8813439AB21C
:1012D0004E4B1B8913439AB24C4B5B8913439AB212
:1012E0004A4B9B8913439AB2484BDB8913439BB209
:1012F000BB60474B1B6807F108021146184601F016
:1013000041FE322001F032F8414B1B683C4A118803
:101310000022184601F0B2FF3D4B1B683A4A118883
:101320000022184601F0AAFF364B1B88FF2B07D07E
:10133000374B1B68334A11880022184601F09EFF84
:101340002B4B1B7803F01003002B15D1032000F06A
:10135000F3F9052001F00AF8032000F0EDF905206B
:1013600001F004F8032000F0E7F9012000F0FEFF8F
:10137000022000F0E1F91DE01D4B1B7843F0200333
:10138000DBB2184600F053F9052000F0EFFF184BD0
:101390001B7843F02003DBB2184600F048F9012027
:1013A00000F0E4FF124B1B7843F02003DBB2184639
:1013B00000F03DF90E4B1B7843F02003DBB21846DA
:1013C00000F035F9134B04221A7000F0EFF800F02A
:1013D000B1F8114B02221A700F4B1B7843F0040333
:1013E000DBB2184600F023F900BF1837BD4680BDB8
:1013F0002002002023020020040200200000002020
:1014000006020020080200200A0200200C02002030
:101410001C020020210200202202002080B487B09C
:1014200000AF2F4B1B682F4A93420CD12E4B9B6968
:101430002D4A43F0040393612B4B9B6903F0040393
:101440007B617B6946E0264B1B68284A93420CD19E
:10145000254B9B69244A43F008039361224B9B6907
:1014600003F008033B613B6934E01D4B1B681F4AD6
:1014700093420CD11C4B9B691B4A43F008039361B8
:10148000194B9B6903F00803FB60FB6822E0144BD7
:101490001B68174A93420CD1134B9B69124A43F0C5
:1014A00010039361104B9B6903F01003BB60BB6892
:1014B00010E00B4B1B680F4A93420BD10A4B9B6900
:1014C000094A43F020039361074B9B6903F0200313
:1014D0007B607B6800BF1C37BD4680BC704700BF87
:1014E0001C0200200008014000100240000C0140D6
:1014F000001001400014014080B485B000AFF860D6
:10150000B9607A603B60FB68DAB2094B1A70BB685D
:10151000DAB2074B5A707B68DAB2054B9A703B68B7
:10152000DAB2034BDA7000BF1437BD4680BC704797
:101530002402002080B500AF012000F078F80220DE
:1015400000F014FF00BF80BD80B584B000AF03463B
:101550000A46FB711346BB710423FB60BB79FA6832
:101560009A4203D8FB68DBB2013BBB710D4B1B7881
:10157000BA799A4203D30B4B1B78013BBB71BB7901
:10158000094AD25CFB791344DBB25BB263F07F03A0
:101590005BB2DBB2184600F04AF800BF1037BD4618
:1015A00080BD00BF230200202402002080B500AFD0
:1015B000084B1B7843F00403DAB2064B1A70054B54
:1015C0001B7843F00803DBB2184600F030F800BF88
:1015D00080BD00BF2102002080B586B000AF7860DA
:1015E0007B68002B01D100231DE07B687B6178685C
:1015F000FEF7AEFD38610023FB600CE07B695A1CEE
:101600007A611B78184600F020F80346002B08D0BA
:10161000FB680133FB603B695A1E3A61002BEDD138
:1016200000E000BFFB6818461837BD4680BD80B596
:1016300082B000AF0346FB71FB790021184600F031
:1016400013F800BF0837BD4680BD80B582B000AF3B
:101650000346FB71FB790121184600F005F80123D0
:1016600018460837BD4680BD80B582B000AF03463E
:101670000A46FB711346BB71164B1B68164A11884C
:10168000BA79184601F0FAFD144B1B88FF2B07D0DE
:10169000104B1B68114A11880022184601F0EEFD1C
:1016A0000F4B1B7803F01003002B04D0FB79184676
:1016B00000F06CF809E0FB791B09DBB2184600F07A
:1016C0003BF8FB79184600F037F800BF0837BD46F5
:1016D00080BD00BF1C02002006020020080200207E
:1016E0002002002080B500AF114B1B68114A118801
:1016F0000022184601F0C2FD012000F037FE0C4B1D
:101700001B680C4A11880122184601F0B7FD012020
:1017100000F02CFE064B1B68064A11880022184672
:1017200001F0ACFD012000F021FE00BF80BD00BF34
:101730001C0200200A02002080B584B000AF0346DE
:10174000FB710023FB6013E00E4B18680E4AFB6828
:1017500032F81310FA79FB6842FA03F3DBB203F0B4
:101760000103DBB21A4601F089FDFB680133FB601F
:10177000FB68032BE8DDFFF7B5FF00BF1037BD4660
:1017800080BD00BF1C0200200C02002080B584B088
:1017900000AF0346FB710023FB6013E00E4B18689B
:1017A0000E4AFB6832F81310FA79FB6842FA03F329
:1017B000DBB203F00103DBB21A4601F05FFDFB6808
:1017C0000133FB60FB68072BE8DDFFF78BFF00BFF1
:1017D0001037BD4680BD00BF1C0200200C02002057
:1017E00080B584B004AF00F05FFD00F041F800F078
:1017F00045F900F08DF800F0C9F800F015F9164829
:1018000001F004FA154802F035FB154B00221A606E
:101810004FF4007303934FF480730293802301937A
:10182000402300932023102208210E48FFF750FC8C
:1018300004211420FFF7E2FC00210020FFF784FEC2
:101840000948FFF7C9FE01210020FFF77DFE074888
:10185000FFF7C2FEFEE700BF28020020580200206A
:10186000E8020020000C0140707700088077000833
:1018700080B594B000AF07F1280328220021184654
:1018800003F08AF807F1140300221A605A609A6084
:10189000DA601A613B1D00221A605A609A60DA60B1
:1018A0000223BB620123BB631023FB6300237B6421
:1018B00007F12803184601F011FD0346002B01D063
:1018C00000F0EEFA0F237B610023BB610023FB6174
:1018D00000233B6200237B6207F1140300211846BA
:1018E00001F07EFF0346002B01D000F0D9FA02235D
:1018F0007B600023FB603B1D184602F0FFF80346A7
:10190000002B01D000F0CCFA00BF5037BD4680BD9F
:1019100080B584B000AF3B1D00221A605A609A6007
:10192000184B194A1A60174B00229A60154B002277
:101930001A73144B00221A75124B4FF46022DA61AD
:10194000104B00225A600F4B01221A610D4800F023
:1019500031FD0346002B01D000F0A2FA01237B6089
:101960000123BB600023FB603B1D1946054800F0C6
:10197000B9FF0346002B01D000F092FA00BF1037E8
:10198000BD4680BD280200200024014080B586B0FD
:1019900000AF07F1080300221A605A609A60DA600B
:1019A0003B4600221A605A601E4B4FF080421A607C
:1019B0001C4B4FF41C725A601A4B00229A60194B50
:1019C0004FF6FF12DA60174B00221A61154B002206
:1019D0009A61144802F0FEF90346002B01D000F092
:1019E0005FFA4FF48053BB6007F1080319460D48B6
:1019F00002F094FB0346002B01D000F051FA0023C3
:101A00003B6000237B603B461946064802F060FDC0
:101A10000346002B01D000F043FA00BF1837BD4643
:101A200080BD00BF5802002080B500AF114B124AA4
:101A30001A60104B4FF416525A600E4B00229A60F7
:101A40000C4B0022DA600B4B00221A61094B0C226E
:101A50005A61084B00229A61064B0022DA61054860
:101A600002F0A0FD0346002B01D000F019FA00BFE0
:101A700080BD00BFA00200200038014080B588B0C2
:101A800000AF07F1100300221A605A609A60DA6012
:101A9000324B9B69314A43F0200393612F4B9B6982
:101AA00003F02003FB60FB682C4B9B692B4A43F03F
:101AB00004039361294B9B6903F00403BB60BB687B
:101AC000264B9B69254A43F008039361234B9B698E
:101AD00003F008037B607B6800224FF4C05120486C
:101AE00001F0CCFB00224FF47E711E4801F0C6FBD2
:101AF00002233B611C4B7B610023BB6107F1100398
:101B00001946184801F03EFA4FF4C0533B610123D7
:101B10007B610023BB610223FB6107F110031946BF
:101B20000F4801F02FFA4FF47E733B6101237B6174
:101B30000023BB610223FB6107F11003194609482A
:101B400001F020FA00220221072001F0E4F9072029
:101B500001F0FDF900BF2037BD4680BD00100240F6
:101B600000080140000C01400000111000000000BE
:101B700080B582B000AF3E4800F0F4FC64213C48E0
:101B800000F09EFD0346002B64D1394800F09EFE14
:101B90000346384A1360384B1B68384A12681146AE
:101BA0001846FFF783F903461A46354B1A60314B46
:101BB0001B681846FFF76EF803461846FEF734FC1C
:101BC00027A3D3E90023FEF787FC02460B46104605
:101BD000194625A3D3E90023FEF7A8FD02460B46CC
:101BE00010461946FEF750FF03467B60254978688A
:101BF000FFF7A8F803461A46234B1A60204B1B68D0
:101C00001846FEF711FC02460B462049204803F017
:101C10002BFB1F48FEF79CFA03469AB24FF0FF33A6
:101C20001B491C4802F00EFD144B1B681846FEF7BA
:101C3000FBFB02460B461849154803F015FB1448F8
:101C4000FEF786FA03469AB24FF0FF331049114867
:101C500002F0F8FC00BF0837BD4680BDAFF300803E
:101C60006666666666660A400000000000FEAF40D9
:101C700028020020E802002024030020280300207E
:101C80002C0300200000C842EC02002090770008DE
:101C9000F0020020A0020020A87700080000000049
:101CA00080B582B000AF5A4800F05CFC642158480F
:101CB00000F006FD0346002B40F09F80544800F0E2
:101CC00005FE0346534A1360524B1B681846FEF745
:101CD000E1FF03461846FEF7A7FB4BA3D3E9002319
:101CE000FEF7FAFB02460B46104619464FF000027B
:101CF000494BFEF71BFD02460B4610461946FEF700
:101D0000C3FE03467B6045497868FFF71BF803462E
:101D10001A46434B1A60424B1B68424A1360404BC1
:101D20001B681846FEF780FB02460B463E493F48BB
:101D300003F09AFA3E4B1B68394A1268114618465E
:101D4000FEF7F8FE03461A46394B1A60394B1B68FA
:101D50004FF07E511846FEF7EDFE03461A46354B0E
:101D60001A603248FEF7F4F903469AB24FF0FF3397
:101D70002E49314802F066FC2E4B1B681846FEF7D0
:101D800053FB02460B462D49284803F06DFA2748BD
:101D9000FEF7DEF903469AB24FF0FF332349264897
:101DA00002F050FC1E4B1B6825491846FFF786F9C8
:101DB0000346002B15D01A4B1B6822491846FFF723
:101DC0005FF90346002B0CD000224FF400611E483F
:101DD00001F054FA01224FF480511B4801F04EFAF1
:101DE0000BE000224FF48051174801F047FA01221E
:101DF0004FF40061144801F041FA00BF0837BD46B6
:101E000080BD00BFAFF300806666666666660A4006
:101E100028020020E80200200000B0400000C84274
:101E2000EC02002004000020C0770008F00200202F
:101E30002403002028030020A0020020D0770008FF
:101E40000000E04100000C420008014080B500AFF6
:101E5000094B1B781A460949094803F005FA084856
:101E6000FEF776F903469AB24FF0FF33044905486E
:101E700002F0E8FB00BF80BD08000020E877000802
:101E8000F0020020A002002080B582B000AF786090
:101E9000FFF706FFFFF7DAFF00BF0837BD4680BD3A
:101EA00080B400AF72B600BFFEE7000080B483B01C
:101EB00000AF0E4B9B690D4A43F0010393610B4B3E
:101EC0009B6903F001037B607B68084BDB69074A71
:101ED00043F08053D361054BDB6903F080533B60D3
:101EE0003B6800BF0C37BD4680BC70470010024005
:101EF00080B588B000AF786007F1100300221A6047
:101F00005A609A60DA607B681B68144A934221D158
:101F1000134B9B69124A43F400739361104B9B6906
:101F200003F40073FB60FB680D4B9B690C4A43F0A4
:101F3000040393610A4B9B6903F00403BB60BB6815
:101F400002233B6103237B6107F110031946054817
:101F500001F018F800BF2037BD4680BD00240140C5
:101F6000001002400008014080B584B000AF7860E6
:101F70007B681B68B3F1804F13D10C4BDB690B4AB4
:101F800043F00103D361094BDB6903F00103FB60FC
:101F9000FB68002200211C2000F0BDFF1C2000F087
:101FA000D6FF00BF1037BD4680BD00BF0010024005
:101FB00080B588B000AF786007F1100300221A6086
:101FC0005A609A60DA607B681B681C4A934231D180
:101FD0001B4B9B691A4A43F480439361184B9B69DE
:101FE00003F48043FB60FB68154B9B69144A43F084
:101FF00004039361124B9B6903F00403BB60BB684D
:102000004FF400733B6102237B610323FB6107F103
:10201000100319460B4800F0B5FF4FF480633B6195
:1020200000237B610023BB6107F1100319460548BB
:1020300000F0A8FF00BF2037BD4680BD003801403A
:10204000001002400008014080B400AFFEE780B4F9
:1020500000AFFEE780B400AFFEE780B400AFFEE75C
:1020600080B400AFFEE780B400AF00BFBD4680BCC7
:10207000704780B400AF00BFBD4680BC704780B4DD
:1020800000AF00BFBD4680BC704780B500AF00F018
:1020900051F900BF80BD80B500AF022001F006F904
:1020A00000BF80BD80B500AF024801F02FFF00BF28
:1020B00080BD00BF5802002080B582B000AF03464B
:1020C000FB80FFF755FD00BF0837BD4680BD80B4DB
:1020D00000AF01231846BD4680BC704780B582B072
:1020E00000AF7860396002F02DFC034616221A60BA
:1020F0004FF0FF3318460837BD4680BD80B582B02B
:1021000000AF78604FF0FF317868FFF7E7FFFEE738
:1021100080B586B000AFF860B9607A6000237B615B
:102120000AE0AFF300800146BB685A1CBA60CAB22D
:102130001A707B6901337B617A697B689A42F0DBB4
:102140007B6818461837BD4680BD80B586B000AFA5
:10215000F860B9607A6000237B6109E0BB685A1CB3
:10216000BA601B781846AFF300807B6901337B614E
:102170007A697B689A42F1DB7B6818461837BD465E
:1021800080BD80B483B000AF78604FF0FF33184655
:102190000C37BD4680BC704780B483B000AF786018
:1021A00039603B684FF400525A60002318460C37E0
:1021B000BD4680BC704780B483B000AF7860012317
:1021C00018460C37BD4680BC704780B485B000AF60
:1021D000F860B9607A60002318461437BD4680BCA9
:1021E0007047000080B586B000AF7860144A154B88
:1021F000D31A7B617B693B61134B1B68002B02D1B7
:10220000114B124A1A60104B1A687B6813443A69E2
:102210009A4207D202F096FB03460C221A604FF056
:10222000FF3309E0084B1B68FB60074B1A687B68AB
:102230001344054A1360FB6818461837BD4680BD35
:102240000028002000040000300300204803002084
:1022500080B400AF00BFBD4680BC7047FFF7F8FFF9
:102260000B480C490C4A002302E0D458C4500433F4
:10227000C4188C42F9D3094A094C002301E01360C9
:102280000432A242FBD302F063FBFFF7A9FA7047C6
:1022900000000020E80100201C7C0008E80100206C
:1022A00048030020FEE7000080B500AF084B1B6824
:1022B000074A43F010031360032000F021FE0F20B3
:1022C00000F008F8FFF7F2FD0023184680BD00BFBC
:1022D0000020024080B582B000AF7860124B1A68CF
:1022E000124B1B7819464FF47A73B3FBF1F3B2FB30
:1022F000F3F3184600F039FE0346002B01D001230A
:102300000EE07B680F2B0AD8002279684FF0FF306F
:1023100000F001FE064A7B681360002300E0012301
:1023200018460837BD4680BD0C0000201400002070
:102330001000002080B400AF054B1B781A46054BF7
:102340001B681344034A136000BFBD4680BC70473E
:10235000140000203403002080B400AF024B1B683F
:102360001846BD4680BC70473403002080B584B059
:1023700000AF7860FFF7F0FFB8607B68FB60FB6838
:10238000B3F1FF3F05D00A4B1B781A46FB68134494
:10239000FB6000BFFFF7E0FF0246BB68D31AFA6894
:1023A0009A42F7D800BF00BF1037BD4680BD00BFBE
:1023B0001400002080B586B000AF78600023FB7564
:1023C00000233B610023BB600023FB607B68002B84
:1023D00001D10123BEE07B689B68002B7B689B6A70
:1023E000002B09D17B680022DA627B68002283F827
:1023F00024207868FFF77CFD786800F0C5FB034671
:10240000FB757B689B6A03F01003002B40F09980FA
:10241000FB7D002B40F095807B689B6A23F48853FA
:1024200023F0020343F002027B689A627B685A68D9
:102430007B68DB691A437B681B7B5B001343BA68CC
:102440001343BB607B689B68B3F5807F03D07B68D8
:102450009B68012B02D14FF4807300E000233A699E
:1024600013433B617B681B7D012B19D17B681B7B70
:10247000002B09D17B689B69013B5A033B691343DD
:1024800043F400633B610BE07B689B6A43F02002EE
:102490007B689A627B68DB6A43F001027B68DA62E0
:1024A0007B681B685B6823F469417B681B683A6939
:1024B0000A435A607B681B689A68284B13407A6805
:1024C0001268B9680B4393607B689B68B3F5807FA3
:1024D00003D07B689B68012B04D17B681B69013B9F
:1024E0001B05FB607B681B68DB6A23F470017B685B
:1024F0001B68FA680A43DA627B681B689A68184BA3
:102500001340BA689A420BD17B680022DA627B687A
:102510009B6A23F0030343F001027B689A6218E090
:102520007B689B6A23F0120343F010027B689A6277
:102530007B68DB6A43F001027B68DA620123FB758A
:1025400007E07B689B6A43F010027B689A62012374
:10255000FB75FB7D18461837BD4680BDFDF7E1FFD2
:10256000FE0E1FFF80B584B000AF78600023FB73C0
:102570007B6893F82430012B01D1022398E07B681B
:10258000012283F82420786800F0A4FA0346FB7344
:10259000FB7B002B40F087807B689B6A23F44073B1
:1025A00023F0010343F480727B689A627B681B68A6
:1025B000414A934205D1414B5B6803F47023002BE1
:1025C00015D17B689B6A23F480127B689A627B68D2
:1025D0001B685B6803F48063002B26D07B689B6AD2
:1025E00023F4405343F480527B689A621DE07B6879
:1025F0009B6A43F480127B689A627B681B682F4A4F
:10260000934204D07B681B682B4A93420DD12B4B1D
:102610005B6803F48063002B07D07B689B6A23F41C
:10262000405343F480527B689A627B689B6A03F450
:102630008053002B06D07B68DB6A23F006027B68A0
:10264000DA6202E07B680022DA627B68002283F8AB
:1026500024207B681B686FF002021A607B681B688D
:102660009B6803F46023B3F5602F13D17B681B686C
:10267000114A934205D1114B5B6803F47023002B80
:1026800008D17B681B689A687B681B6842F4A002CB
:102690009A600CE07B681B689A687B681B6842F450
:1026A00080129A6003E07B68002283F82420FB7B81
:1026B00018461037BD4680BD002801400024014067
:1026C00090B587B000AF7860396000237B6100234C
:1026D000FB6000233B61FFF73FFE78617B681B686E
:1026E0009B6803F48073002B0BD07B689B6A43F0DC
:1026F00020027B689A627B68002283F824200123F1
:10270000D3E07B681B685B6803F48073002B31D1D6
:102710007B681B68DB6A03F47003002B2AD121E07D
:102720003B68B3F1FF3F1DD03B68002B07D0FFF79C
:1027300013FE02467B69D31A3A689A4212D27B682A
:102740001B681B6803F00203002B0BD17B689B6A9C
:1027500043F004027B689A627B68002283F824209D
:102760000323A2E07B681B681B6803F00203002BB5
:10277000D6D070E04F4B1C68022001F075FA03467A
:10278000B4FBF3F27B681B6819694B4B0B40002BC1
:1027900018D17B681B68D968484B0B40002B11D1BE
:1027A0007B681B681969464B0B40002B08D17B687E
:1027B0001B68D968434B0B40002B01D1142320E048
:1027C00029231EE07B681B6819693D4B0B40002BD9
:1027D00006D17B681B68D9683A4B0B40002B0DD0A3
:1027E0007B681B681969384B0B40002B08D17B684C
:1027F0001B68D968344B0B40002B01D1542300E0F7
:10280000FC2302FB03F33B6121E03B68B3F1FF3F94
:102810001AD03B68002B07D0FFF79EFD02467B696C
:10282000D31A3A689A420FD2FB683A699A420BD996
:102830007B689B6A43F004027B689A627B68002293
:1028400083F82420032330E0FB680133FB60FB683E
:102850003A699A42D9D87B681B686FF012021A60F5
:102860007B689B6A43F400727B689A627B681B6892
:102870009B6803F46023B3F5602F15D17B681B7B45
:10288000002B11D17B689B6A23F480727B689A626B
:102890007B689B6A03F48053002B05D17B689B6A9D
:1028A00043F001027B689A62002318461C37BD463C
:1028B00090BD00BF0C0000202449922424499200BE
:1028C00092244912922449004992240080B483B092
:1028D00000AF78607B681B68DB6C18460C37BD4620
:1028E00080BC704780B485B000AF78603960002349
:1028F000FB730023BB607B6893F82430012B01D16C
:102900000223DCE07B68012283F824203B685B68BB
:10291000062B1CD87B681B68596B3B685A681346AA
:102920009B001344053B1F2202FA03F3DB431940CB
:102930003B6818683B685A6813469B001344053B84
:1029400000FA03F27B681B680A435A633CE03B6869
:102950005B680C2B1CD87B681B68196B3B685A683A
:1029600013469B001344233B1F2202FA03F3DB436D
:1029700019403B6818683B685A6813469B0013442B
:10298000233B00FA03F27B681B680A431A631BE0CF
:102990007B681B68D96A3B685A6813469B001344DE
:1029A000413B1F2202FA03F3DB4319403B681868DE
:1029B0003B685A6813469B001344413B00FA03F2FC
:1029C0007B681B680A43DA623B681B68092B1CD9C9
:1029D0007B681B68D9683B681A6813465B00134420
:1029E0001E3B072202FA03F3DB4319403B68986859
:1029F0003B681A6813465B0013441E3B00FA03F25F
:102A00007B681B680A43DA6019E07B681B681969F8
:102A10003B681A6813465B001344072202FA03F36B
:102A2000DB4319403B6898683B681A6813465B00B3
:102A3000134400FA03F27B681B680A431A613B687F
:102A40001B68102B03D03B681B68112B32D17B68AD
:102A50001B681D4A934225D17B681B689B6803F461
:102A60000003002B26D17B681B689A687B681B6873
:102A700042F400029A603B681B68102B1AD1134B7A
:102A80001B68134AA2FB03239A0C13469B001344B2
:102A90005B00BB6002E0BB68013BBB60BB68002B16
:102AA000F9D107E07B689B6A43F020027B689A6259
:102AB0000123FB737B68002283F82420FB7B1846EC
:102AC0001437BD4680BC7047002401400C00002034
:102AD00083DE1B4380B584B000AF78600023FB60C9
:102AE0000023BB607B681B689B6803F00103012B1C
:102AF00040D07B681B689A687B681B6842F00102C3
:102B00009A601F4B1B681F4AA2FB03239B0CBB60F0
:102B100002E0BB68013BBB60BB68002BF9D1FFF74B
:102B20001BFCF8601FE0FFF717FC0246FB68D31A96
:102B3000022B18D97B681B689B6803F00103012BEB
:102B400011D07B689B6A43F010027B689A627B68B5
:102B5000DB6A43F001027B68DA627B68002283F85B
:102B60002420012307E07B681B689B6803F00103B6
:102B7000012BD8D1002318461037BD4680BD00BFB9
:102B80000C00002083DE1B4380B584B000AF78606A
:102B90000023FB607B681B689B6803F00103012B2B
:102BA0002ED17B681B689A687B681B6822F0010243
:102BB0009A60FFF7D1FBF8601BE0FFF7CDFB024600
:102BC000FB68D31A022B14D97B681B689B6803F03F
:102BD0000103012B0DD17B689B6A43F010027B68D7
:102BE0009A627B68DB6A43F001027B68DA62012348
:102BF00007E07B681B689B6803F00103012BDCD0B6
:102C0000002318461037BD4680BD000090B587B040
:102C100000AF78600023FB750023FB607B6893F8AE
:102C20002430012B01D1022397E07B68012283F835
:102C300024207868FFF7A8FF0346FB757868FFF744
:102C400049FF0346FB75FB7D002B40F081807B68CC
:102C50009B6A23F4885323F0020343F002027B684B
:102C60009A62404B1C68022000F0FEFF0346B4FB52
:102C7000F3F35B00FB6002E0FB68013BFB60FB6879
:102C8000002BF9D17B681B689A687B681B6842F04F
:102C900008029A60FFF760FB38611BE0FFF75CFBFE
:102CA00002463B69D31A0A2B14D97B681B689B68C0
:102CB00003F00803002B0DD07B689B6A23F01203FE
:102CC00043F010027B689A627B68002283F824201C
:102CD000012342E07B681B689B6803F00803002B1C
:102CE000DCD17B681B689A687B681B6842F0040231
:102CF0009A60FFF731FB38611BE0FFF72DFB0246BE
:102D00003B69D31A0A2B14D97B681B689B6803F0B4
:102D10000403002B0DD07B689B6A23F0120343F061
:102D200010027B689A627B68002283F824200123CA
:102D300013E07B681B689B6803F00403002BDCD165
:102D40007B689B6A23F0030343F001027B689A626D
:102D50007B68002283F82420FB7D18461C37BD4683
:102D600090BD00BF0C00002080B485B000AF78603B
:102D70007B6803F00703FB600C4BDB68BB60BA6841
:102D80004FF6FF031340BB60FB681A02BB68134396
:102D900043F0BF6343F40033BB60044ABB68D360B5
:102DA00000BF1437BD4680BC704700BF00ED00E097
:102DB00080B400AF044BDB681B0A03F0070318461E
:102DC000BD4680BC704700BF00ED00E080B483B01A
:102DD00000AF0346FB7197F90730002B0BDBFB7943
:102DE00003F01F02064997F907305B09012000FA3A
:102DF00002F241F8232000BF0C37BD4680BC70476B
:102E000000E100E080B483B000AF03463960FB719D
:102E100097F90730002B0ADB3B68DAB20C4997F9C7
:102E200007301201D2B20B4483F800230AE03B685A
:102E3000DAB20849FB7903F00F03043B1201D2B266
:102E40000B441A7600BF0C37BD4680BC704700BFEC
:102E500000E100E000ED00E080B489B000AFF86070
:102E6000B9607A60FB6803F00703FB61FB69C3F19B
:102E70000703042B28BF0423BB61FB690433062B23
:102E800002D9FB69033B00E000237B614FF0FF3276
:102E9000BB6902FA03F3DA43BB681A407B699A40C4
:102EA0004FF0FF317B6901FA03F3D9437B680B4094
:102EB000134318462437BD4680BC704780B582B0A6
:102EC00000AF78607B68013BB3F1807F01D30123C1
:102ED0000FE00A4A7B68013B53600F214FF0FF303F
:102EE000FFF790FF054B00229A60044B07221A60FF
:102EF000002318460837BD4680BD00BF10E000E043
:102F000080B582B000AF78607868FFF72DFF00BF12
:102F10000837BD4680BD80B586B000AF0346B960B6
:102F20007A60FB7300237B61FFF742FF78617A6868
:102F3000B9687869FFF790FF024697F90F3011469C
:102F40001846FFF75FFF00BF1837BD4680BD80B54C
:102F500082B000AF0346FB7197F907301846FFF7C0
:102F600035FF00BF0837BD4680BD80B582B000AFD9
:102F700078607868FFF7A2FF034618460837BD4619
:102F800080BD000080B48BB000AF78603960002352
:102F90007B6200233B6261E101227B6A02FA03F358
:102FA000FB613B681B68FA691340BB61BA69FB6946
:102FB0009A4240F050813B685B68974A93425ED0EA
:102FC000954A934275D8954A934258D0934A934272
:102FD0006FD8934A934252D0914A934269D8914A0A
:102FE00093424CD08F4A934263D88F4A934246D043
:102FF0008D4A93425DD8122B2AD8122B59D801A2A0
:1030000052F823F07F300008593000086B30000878
:10301000AD300008B3300008B3300008B33000080A
:10302000B3300008B3300008B3300008B3300008F4
:10303000B3300008B3300008B3300008B3300008E4
:10304000B3300008B3300008613000087530000864
:10305000764A934213D02CE03B68DB683B6229E060
:103060003B68DB6804333B6224E03B68DB68083381
:103070003B621FE03B68DB680C333B621AE03B6855
:103080009B68002B02D104233B6213E03B689B68E2
:10309000012B05D108233B627B68FA691A6109E0BC
:1030A00008233B627B68FA695A6103E000233B62B4
:1030B00000E000BFBB69FF2B01D87B6801E07B68A3
:1030C00004337B61BB69FF2B02D87B6A9B0002E063
:1030D0007B6A083B9B003B617B691A680F213B6957
:1030E00001FA03F3DB431A40396A3B6901FA03F33F
:1030F0001A437B691A603B685B6803F08053002BBE
:1031000000F0A9804A4B9B69494A43F0010393614F
:10311000474B9B6903F00103BB60BB68454A7B6A70
:103120009B08023352F82330FB607B6A03F00303F1
:103130009B000F2202FA03F3DB43FA681340FB60A3
:103140007B683D4A93420DD07B683C4A934207D04E
:103150007B683B4A934201D1022304E0032302E04F
:10316000012300E000237A6A02F0030292009340F8
:10317000FA681343FB602F497B6A9B080233FA68A5
:1031800041F823203B685B6803F48013002B06D0D2
:103190002C4B9A682B49BB6913438B6006E0294B83
:1031A0009A68BB69DB43274913408B603B685B68C7
:1031B00003F40013002B06D0224BDA682149BB69C7
:1031C0001343CB6006E01F4BDA68BB69DB431D4944
:1031D0001340CB603B685B6803F40033002B06D0E0
:1031E000184B5A681749BB6913434B6006E0154BEF
:1031F0005A68BB69DB43134913404B603B685B680B
:1032000003F48033002B1FD00E4B1A680D49BB69A5
:1032100013430B601FE000BF0000321000003110AC
:1032200000002210000021100000121000001110F8
:10323000001002400000014000080140000C014065
:1032400000100140000401400B4B1A68BB69DB43CE
:10325000094913400B607B6A01337B623B681A6843
:103260007B6A22FA03F3002B7FF496AE00BF00BF07
:103270002C37BD4680BC70470004014080B483B049
:1032800000AF78600B467B8013467B707B78002B09
:1032900003D07A887B681A6103E07B881A047B6814
:1032A0001A6100BF0C37BD4680BC704780B582B044
:1032B00000AF0346FB80084B5A69FB881340002B84
:1032C00006D0054AFB885361FB881846FEF7F4FEDA
:1032D00000BF0837BD4680BD0004014080B586B000
:1032E00000AF78607B68002B01D1012372E27B681C
:1032F0001B6803F00103002B00F08780924B5B6892
:1033000003F00C03042B0CD08F4B5B6803F00C0311
:10331000082B12D18C4B5B6803F48033B3F5803FEC
:103320000BD1894B1B6803F40033002B6CD07B68F6
:103330005B68002B68D101234CE27B685B68B3F5C6
:10334000803F06D1804B1B687F4A43F48033136073
:103350002EE07B685B68002B0CD17B4B1B687A4AA4
:1033600023F480331360784B1B68774A23F480235F
:1033700013601DE07B685B68B3F5A02F0CD1724B26
:103380001B68714A43F4802313606F4B1B686E4ABD
:1033900043F4803313600BE06B4B1B686A4A23F4E1
:1033A00080331360684B1B68674A23F480231360E3
:1033B0007B685B68002B13D0FEF7CEFF386108E016
:1033C000FEF7CAFF02463B69D31A642B01D90323D7
:1033D00000E25D4B1B6803F40033002BF0D014E0D7
:1033E000FEF7BAFF386108E0FEF7B6FF02463B6918
:1033F000D31A642B01D90323ECE1534B1B6803F46C
:103400000033002BF0D100E000BF7B681B6803F0A5
:103410000203002B63D04C4B5B6803F00C03002BC2
:103420000BD0494B5B6803F00C03082B1CD1464BB7
:103430005B6803F48033002B16D1434B1B6803F009
:103440000203002B05D07B681B69012B01D00123EF
:10345000C0E13D4B1B6823F0F8027B685B69DB0031
:10346000394913430B603AE07B681B69002B20D07D
:10347000364B01221A60FEF76FFF386108E0FEF755
:103480006BFF02463B69D31A022B01D90323A1E14A
:103490002D4B1B6803F00203002BF0D02A4B1B6856
:1034A00023F0F8027B685B69DB00274913430B605C
:1034B00015E0264B00221A60FEF74EFF386108E047
:1034C000FEF74AFF02463B69D31A022B01D90323B8
:1034D00080E11D4B1B6803F00203002BF0D17B68D9
:1034E0001B6803F00803002B3AD07B689B69002B14
:1034F00019D0174B01221A60FEF72EFF386108E041
:10350000FEF72AFF02463B69D31A022B01D9032397
:1035100060E10D4B5B6A03F00203002BF0D0012049
:1035200000F0CEFA1CE00A4B00221A60FEF714FFEE
:1035300038610FE0FEF710FF02463B69D31A022BF9
:1035400008D9032346E100BF0010024000004242B8
:1035500080044242924B5B6A03F00203002BE9D1E4
:103560007B681B6803F00403002B00F0A680002397
:10357000FB758B4BDB6903F08053002B0DD1884B1F
:10358000DB69874A43F08053D361854BDB6903F0E5
:103590008053BB60BB680123FB75824B1B6803F43F
:1035A0008073002B18D17F4B1B687E4A43F48073D5
:1035B0001360FEF7D1FE386108E0FEF7CDFE02464B
:1035C0003B69D31A642B01D9032303E1754B1B68B4
:1035D00003F48073002BF0D07B68DB68012B06D1ED
:1035E0006F4B1B6A6E4A43F0010313622DE07B6848
:1035F000DB68002B0CD16A4B1B6A694A23F001037C
:103600001362674B1B6A664A23F0040313621CE0D3
:103610007B68DB68052B0CD1614B1B6A604A43F069
:10362000040313625E4B1B6A5D4A43F0010313629D
:103630000BE05B4B1B6A5A4A23F001031362584BA1
:103640001B6A574A23F0040313627B68DB68002B74
:1036500015D0FEF781FE38610AE0FEF77DFE0246D6
:103660003B69D31A41F28832934201D90323B1E076
:103670004B4B1B6A03F00203002BEED014E0FEF765
:103680006BFE38610AE0FEF767FE02463B69D31A1B
:1036900041F28832934201D903239BE0404B1B6ADD
:1036A00003F00203002BEED1FB7D012B05D13C4B37
:1036B000DB693B4A23F08053D3617B68DB69002BD5
:1036C00000F08780364B5B6803F00C03082B61D059
:1036D0007B68DB69022B46D1334B00221A60FEF770
:1036E0003BFE386108E0FEF737FE02463B69D31A1D
:1036F000022B01D903236DE0294B1B6803F00073F3
:10370000002BF0D17B681B6AB3F5803F08D1244BB6
:103710005B6823F400327B689B68214913434B604C
:103720001F4B5B6823F474127B68196A7B685B6AC1
:103730000B431B4913434B601B4B01221A60FEF7DE
:103740000BFE386108E0FEF707FE02463B69D31A1C
:10375000022B01D903233DE0114B1B6803F00073DA
:10376000002BF0D035E0104B00221A60FEF7F4FD7C
:10377000386108E0FEF7F0FD02463B69D31A022BE0
:1037800001D9032326E0064B1B6803F00073002BCE
:10379000F0D11EE07B68DB69012B07D1012319E022
:1037A0000010024000700040600042420B4B5B681A
:1037B000FB60FB6803F480327B681B6A9A4206D187
:1037C000FB6803F470127B685B6A9A4201D00123A4
:1037D00000E0002318461837BD4680BD00100240A7
:1037E00080B584B000AF786039607B68002B01D170
:1037F0000123D0E06A4B1B6803F007033A689A4242
:1038000010D9674B1B6823F0070265493B681343D7
:103810000B60634B1B6803F007033A689A4201D0C0
:103820000123B8E07B681B6803F00203002B20D063
:103830007B681B6803F00403002B05D0594B5B68C1
:10384000584A43F4E06353607B681B6803F0080345
:10385000002B05D0534B5B68524A43F460535360CE
:10386000504B5B6823F0F0027B689B684D49134323
:103870004B607B681B6803F00103002B40D07B6822
:103880005B68012B07D1474B1B6803F40033002B07
:1038900015D101237FE07B685B68022B07D1414B88
:1038A0001B6803F00073002B09D1012373E03D4B2B
:1038B0001B6803F00203002B01D101236BE0394B9D
:1038C0005B6823F003027B685B68364913434B60F7
:1038D000FEF742FDF8600AE0FEF73EFD0246FB6897
:1038E000D31A41F28832934201D9032353E02D4B7E
:1038F0005B6803F00C027B685B689B009A42EBD12B
:10390000274B1B6803F007033A689A4210D2244BF6
:103910001B6823F0070222493B6813430B60204BCE
:103920001B6803F007033A689A4201D0012332E092
:103930007B681B6803F00403002B08D0194B5B68FD
:1039400023F4E0627B68DB68164913434B607B68B5
:103950001B6803F00803002B09D0124B5B6823F4AB
:1039600060527B681B69DB000E4913434B6000F01B
:1039700021F802460B4B5B681B0903F00F030A4951
:10398000CB5C22FA03F3094A1360094B1B68184603
:10399000FEF7A0FC002318461037BD4680BD00BFCF
:1039A0000020024000100240FC7700080C000020BC
:1039B0001000002080B487B000AF0023FB6000231C
:1039C000BB6000237B6100237B6000233B611E4BB7
:1039D0005B68FB60FB6803F00C03042B02D0082B30
:1039E00003D027E0194B3B6127E0FB689B0C03F0F9
:1039F0000F03174AD35C7B60FB6803F48033002B12
:103A000010D0114B5B685B0C03F00103114AD35CCF
:103A1000BB607B680D4A03FB02F2BB68B2FBF3F3A9
:103A20007B6104E07B680C4A02FB03F37B617B69EA
:103A30003B6102E0054B3B6100BF3B6918461C3708
:103A4000BD4680BC704700BF0010024000127A00E3
:103A5000147800082478000800093D0080B400AF05
:103A6000024B1B681846BD4680BC70470C00002006
:103A700080B500AFFFF7F2FF0246054B5B681B0AFB
:103A800003F007030349CB5C22FA03F3184680BD19
:103A9000001002400C78000880B500AFFFF7DEFF91
:103AA0000246054B5B68DB0A03F007030349CB5C66
:103AB00022FA03F3184680BD001002400C7800087B
:103AC00080B485B000AF78600A4B1B680A4AA2FB3D
:103AD00003235B0A7A6802FB03F3FB6000BFFB6809
:103AE0005A1EFA60002BF9D100BF00BF1437BD4643
:103AF00080BC70470C000020D34D621080B586B0AA
:103B000000AF786000233B610023FB607B681B688B
:103B100003F00103002B7DD00023FB754F4BDB69C5
:103B200003F08053002B0DD14C4BDB694B4A43F023
:103B30008053D361494BDB6903F08053BB60BB68A2
:103B40000123FB75464B1B6803F48073002B18D1CF
:103B5000434B1B68424A43F480731360FEF7FCFB3F
:103B6000386108E0FEF7F8FB02463B69D31A642B84
:103B700001D903236DE03A4B1B6803F48073002BDB
:103B8000F0D0364B1B6A03F44073FB60FB68002BDC
:103B90002ED07B685B6803F44073FA689A4227D0A2
:103BA0002E4B1B6A23F44073FB602E4B01221A60DC
:103BB0002C4B00221A60294AFB681362FB6803F051
:103BC0000103002B14D0FEF7C7FB38610AE0FEF7B3
:103BD000C3FB02463B69D31A41F28832934201D9B2
:103BE000032336E01D4B1B6A03F00203002BEED0CB
:103BF0001A4B1B6A23F440727B685B6817491343B6
:103C00000B62FB7D012B05D1144BDB69134A23F0BA
:103C10008053D3617B681B6803F00203002B08D03C
:103C20000E4B5B6823F440427B689B680B4913434F
:103C30004B607B681B6803F01003002B08D0074B18
:103C40005B6823F480027B68DB68044913434B60A4
:103C5000002318461837BD4680BD00BF0010024043
:103C6000007000404004424280B588B000AF7860E8
:103C700000237B610023FB6100233B610023FB6089
:103C80000023BB617B68102B0AD07B68102B00F2ED
:103C90008A807B68012B45D07B68022B75D082E03F
:103CA000464B5B68FB60454B1B6803F08073002B41
:103CB0007BD0FB689B0C03F00F03414AD35C3B6154
:103CC000FB6803F48033002B15D03C4B5B685B0C26
:103CD00003F001033B4AD35C7B61FB6803F4803350
:103CE000002B0DD0384A7B69B2FBF3F23B6902FB33
:103CF00003F3FB6104E03B69344A02FB03F3FB611D
:103D00002E4B5B6803F48003B3F5800F02D1FB698F
:103D1000BB614AE0FB695B002D4AA2FB03235B0801
:103D2000BB6142E0254B1B6AFB60FB6803F44073F8
:103D3000B3F5807F08D1FB6803F00203002B03D0AA
:103D40004FF40043BB611FE0FB6803F44073B3F51D
:103D5000007F09D1194B5B6A03F00203002B03D0EB
:103D600049F64043BB610FE0FB6803F44073B3F5D1
:103D7000407F1CD1114B1B6803F40033002B16D07D
:103D80004FF22443BB6112E011E0FFF785FE0246CB
:103D90000A4B5B689B0B03F0030301335B00B2FB30
:103DA000F3F3BB6104E000BF02E000BF00E000BF2E
:103DB000BB6918462037BD4680BD00BF00100240D9
:103DC000287800083878000800127A0000093D00C1
:103DD000ABAAAAAA80B582B000AF78607B68002B3E
:103DE00001D1012341E07B6893F83D30DBB2002B29
:103DF00006D17B68002283F83C207868FEF7B4F88F
:103E00007B68022283F83D207B681A687B68043354
:103E10001946104600F06EFA7B68012283F84620AE
:103E20007B68012283F83E207B68012283F83F20D3
:103E30007B68012283F840207B68012283F84120BF
:103E40007B68012283F842207B68012283F84320AB
:103E50007B68012283F844207B68012283F8452097
:103E60007B68012283F83D20002318460837BD46B1
:103E700080BD000080B485B000AF78607B6893F8A7
:103E80003D30DBB2012B01D0012335E07B680222FB
:103E900083F83D207B681B68DA687B681B6842F00A
:103EA0000102DA607B681B68164A934209D07B687E
:103EB0001B68B3F1804F04D07B681B68124A9342A1
:103EC00011D17B681B689B6803F00703FB60FB68EC
:103ED000062B10D07B681B681A687B681B6842F051
:103EE00001021A6007E07B681B681A687B681B6820
:103EF00042F001021A60002318461437BD4680BC08
:103F0000704700BF002C01400004004080B582B023
:103F100000AF78607B681B681B6903F00203022B0B
:103F200022D17B681B68DB6803F00203022B1BD1E4
:103F30007B681B686FF002021A617B6801221A77A6
:103F40007B681B689B6903F00303002B03D0786830
:103F500000F0B4F905E0786800F0A7F9786800F09F
:103F6000B6F97B6800221A777B681B681B6903F02F
:103F70000403042B22D17B681B68DB6803F0040375
:103F8000042B1BD17B681B686FF004021A617B68ED
:103F900002221A777B681B689B6903F44073002B2D
:103FA00003D0786800F08AF905E0786800F07DF9C0
:103FB000786800F08CF97B6800221A777B681B68B0
:103FC0001B6903F00803082B22D17B681B68DB68A0
:103FD00003F00803082B1BD17B681B686FF00802F5
:103FE0001A617B6804221A777B681B68DB6903F01F
:103FF0000303002B03D0786800F060F905E07868CF
:1040000000F053F9786800F062F97B6800221A77B3
:104010007B681B681B6903F01003102B22D17B689F
:104020001B68DB6803F01003102B1BD17B681B6837
:104030006FF010021A617B6808221A777B681B6890
:10404000DB6903F44073002B03D0786800F036F985
:1040500005E0786800F029F9786800F038F97B68A5
:1040600000221A777B681B681B6903F00103012B90
:104070000ED17B681B68DB6803F00103012B07D1BD
:104080007B681B686FF001021A617868FDF7FCFE1F
:104090007B681B681B6903F08003802B0ED17B6853
:1040A0001B68DB6803F08003802B07D17B681B68EB
:1040B0006FF080021A61786800F06BFA7B681B6809
:1040C0001B6903F04003402B0ED17B681B68DB6843
:1040D00003F04003402B07D17B681B686FF0400260
:1040E0001A61786800F0FCF87B681B681B6903F0B4
:1040F0002003202B0ED17B681B68DB6803F02003B4
:10410000202B07D17B681B686FF020021A6178684A
:1041100000F036FA00BF0837BD4680BD80B584B0D8
:1041200000AF786039600023FB737B6893F83C3004
:10413000012B01D10223B4E07B68012283F83C20EB
:104140007B68022283F83D207B681B689B68BB600C
:10415000BB6823F07703BB60BB6823F47F43BB607D
:104160007B681B68BA689A603B681B68B3F5005FA0
:104170003ED0B3F5005F00F28780B3F5805F00F0BA
:104180008680B3F5805F7FD8702B1AD0702B7BD8D8
:10419000602B50D0602B77D8502B3CD0502B73D84D
:1041A000402B58D0402B6FD8302B64D0302B6BD89D
:1041B000202B60D0202B67D8002B5CD0102B5AD03E
:1041C00062E07B6818683B6899683B685A683B689E
:1041D000DB6800F05EF97B681B689B68BB60BB68AE
:1041E00043F07703BB607B681B68BA689A604FE056
:1041F0007B6818683B6899683B685A683B68DB686D
:1042000000F047F97B681B689A687B681B6842F47A
:1042100080429A603CE07B6818683B6859683B685C
:10422000DB681A4600F0BEF87B681B685021184610
:1042300000F015F92CE07B6818683B6859683B680A
:10424000DB681A4600F0DCF87B681B6860211846C2
:1042500000F005F91CE07B6818683B6859683B680A
:10426000DB681A4600F09EF87B681B684021184600
:1042700000F0F5F80CE07B681A683B681B6819468B
:10428000104600F0ECF803E00123FB7300E000BFF0
:104290007B68012283F83D207B68002283F83C2064
:1042A000FB7B18461037BD4680BD80B483B000AF9D
:1042B000786000BF0C37BD4680BC704780B483B0C7
:1042C00000AF786000BF0C37BD4680BC704780B43B
:1042D00083B000AF786000BF0C37BD4680BC70472C
:1042E00080B483B000AF786000BF0C37BD4680BC9F
:1042F0007047000080B485B000AF786039607B689B
:104300001B68FB607B68254A934207D07B68B3F14A
:10431000804F03D07B68224A934208D1FB6823F088
:104320007003FB603B685B68FA681343FB607B6863
:104330001A4A934207D07B68B3F1804F03D07B6861
:10434000174A934208D1FB6823F44073FB603B6833
:10435000DB68FA681343FB60FB6823F080023B686C
:104360005B691343FB607B68FA681A603B689A6874
:104370007B68DA623B681A687B689A627B68074AE6
:10438000934203D13B681A697B681A637B680122F8
:104390005A6100BF1437BD4680BC7047002C0140F5
:1043A0000004004080B487B000AFF860B9607A6064
:1043B000FB681B6A7B61FB681B6A23F00102FB68D8
:1043C0001A62FB689B693B613B6923F0F0033B6128
:1043D0007B681B013A6913433B617B6923F00A0345
:1043E0007B617A69BB6813437B61FB683A699A61B8
:1043F000FB687A691A6200BF1C37BD4680BC7047F3
:1044000080B487B000AFF860B9607A60FB681B6A5F
:104410007B61FB681B6A23F01002FB681A62FB6871
:104420009B693B613B6923F470433B617B681B03E1
:104430003A6913433B617B6923F0A0037B61BB684E
:104440001B017A6913437B61FB683A699A61FB68D7
:104450007A691A6200BF1C37BD4680BC704780B4C1
:1044600085B000AF786039607B689B68FB60FB6853
:1044700023F07003FB603A68FB68134343F00703C3
:10448000FB607B68FA689A6000BF1437BD4680BC49
:10449000704780B487B000AFF860B9607A603B6065
:1044A000FB689B687B617B6923F47F437B613B688E
:1044B0001A027B681A43BB6813437A6913437B6112
:1044C000FB687A699A6000BF1C37BD4680BC7047A4
:1044D00080B485B000AF786039607B6893F83C3079
:1044E000012B01D1022341E07B68012283F83C20AB
:1044F0007B68022283F83D207B681B685B68FB6059
:104500007B681B689B68BB60FB6823F07003FB60E3
:104510003B681B68FA681343FB607B681B68FA689A
:104520005A607B681B68144A934209D07B681B68F9
:10453000B3F1804F04D07B681B68104A93420CD1C2
:10454000BB6823F08003BB603B685B68BA681343B9
:10455000BB607B681B68BA689A607B68012283F83D
:104560003D207B68002283F83C2000231846143746
:10457000BD4680BC704700BF002C014000040040D5
:1045800080B483B000AF786000BF0C37BD4680BCFC
:10459000704780B483B000AF786000BF0C37BD4671
:1045A00080BC704780B582B000AF78607B68002B1C
:1045B00001D1012342E07B6893F84130DBB2002B4C
:1045C00006D17B68002283F840207868FDF7F0FC74
:1045D0007B68242283F841207B681B68DA687B684B
:1045E0001B6822F40052DA60786800F01DF97B68DD
:1045F0001B681A697B681B6822F490421A617B6809
:104600001B685A697B681B6822F02A025A617B6822
:104610001B68DA687B681B6842F40052DA607B68CA
:1046200000225A647B68202283F841207B68202284
:1046300083F842207B6800225A630023184608371B
:10464000BD4680BD80B58AB002AFF860B9603B60FE
:104650001346FB8000237B61FB6893F84130DBB29B
:10466000202B6DD1BB68002B02D0FB88002B01D121
:10467000012366E0FB6800225A64FB68212283F86C
:104680004120FDF769FE7861FB68FA889A84FB682F
:10469000FA88DA84FB689B68B3F5805F08D1FB6811
:1046A0001B69002B04D10023FB61BB68BB6103E0E5
:1046B000BB68FB610023BB612AE03B6800937B6918
:1046C00000228021F86800F040F80346002B01D05A
:1046D000032336E0FB69002B0BD1BB691B881A460C
:1046E000FB681B68C2F308025A60BB690233BB61F6
:1046F00007E0FB691A78FB681B685A60FB690133A5
:10470000FB61FB68DB8C9BB2013B9AB2FB68DA84ED
:10471000FB68DB8C9BB2002BCFD13B6800937B699D
:1047200000224021F86800F010F80346002B01D069
:10473000032306E0FB68202283F84120002300E0E9
:10474000022318462037BD4680BD80B590B000AF2B
:10475000F860B9603B601346FB7150E0BB6CB3F18D
:10476000FF3F4CD0BB6C002B07D0FDF7F5FD024698
:104770003B68D31ABA6C9A4241D2FB681B680C336F
:10478000BB62BB6A53E8003F7B627B6A23F4D07351
:10479000FB63FB681B680C33FA6B7A633B63396B12
:1047A0007A6B41E80023FB62FB6A002BE5D1FB68D2
:1047B0001B6814337B617B6953E8003F3B613B69B5
:1047C00023F00103BB63FB681B681433BA6B3A62C6
:1047D000FB61F9693A6A41E80023BB61BB69002BC0
:1047E000E5D1FB68202283F84120FB68202283F872
:1047F0004220FB68002283F8402003230FE0FB687F
:104800001B681A68BB681340BA689A420CBF012340
:104810000023DBB21A46FB799A429FD00023184648
:104820004037BD4680BD000080B584B000AF7860E1
:104830007B681B681B6923F440517B68DA687B68DE
:104840001B680A431A617B689A687B681B691A4374
:104850007B685B691343BB607B681B68DB6823F480
:10486000B05323F00C037A681268B9680B43D36025
:104870007B681B685B6923F440717B689A697B687D
:104880001B680A435A617B681B682C4A934203D118
:10489000FFF702F9F86002E0FFF7EAF8F860FA685B
:1048A00013469B0013449A001A447B685B689B0084
:1048B000B2FBF3F3224AA2FB03235B091901FA6856
:1048C00013469B0013449A001A447B685B689B0064
:1048D000B2FBF3F21A4BA3FB02035B09642000FB5B
:1048E00003F3D31A1B013233154AA2FB03235B09DE
:1048F00003F0F0031944FA6813469B0013449A002E
:104900001A447B685B689B00B2FBF3F20C4BA3FB81
:1049100002035B09642000FB03F3D31A1B0132334B
:10492000074AA2FB03235B0903F00F027B681B68A5
:104930000A449A6000BF1037BD4680BD0038014070
:104940001F85EB51014B1868704700BF180000200D
:1049500070B500260C4D0D4C641BA410A64209D165
:1049600002F0FAFE00260A4D0A4C641BA410A6426F
:1049700005D170BD55F8043B98470136EEE755F870
:10498000043B98470136F2E7147C0008147C0008C9
:10499000147C0008187C000803460244934200D1AE
:1049A000704703F8011BF9E7002B2DE9F0471F467C
:1049B000BBBF03F100431F4600232D2388B01446DC
:1049C000129A109D1370149BDDF84CA023F0200860
:1049D000B8F1460F05D0B8F1450F00D101350223DB
:1049E00000E0032307AA049206AACDE902A2CDE9BA
:1049F000003522463B4600F0E3FCB8F1470F06467F
:104A000002D1119BDB0722D5B8F1460F06EB050951
:104A100010D13378302B0AD10022002320463946AA
:104A2000FBF7C2FF18B9C5F10105CAF80050DAF862
:104A3000003099440022002320463946FBF7B4FF9A
:104A400008B1CDF81C903022079B4B4507D3304668
:104A5000079B159A9B1B136008B0BDE8F087591C93
:104A600007911A70F0E70346F7B5002903F8022B07
:104A7000B6BF2D222B224942092942702BDD0DF1B0
:104A80000704A4460A2791FBF7F60A46A64607FB49
:104A90001615632A05F13005314604F1FF340EF88E
:104AA000015CF0DC3031AEF1020504F8011C29464E
:104AB000441C61450AD30DF10902A2EB0E026545C3
:104AC00088BF00221344181A03B0F0BD11F8012B5F
:104AD00004F8012FEDE7302330318370C170031DDE
:104AE000F1E700002DE9F04F91B00C46DDF8688049
:104AF00016461F46054601F051FA03681846099309
:104B0000FBF726FB00230E93D8F800300A900733FA
:104B100023F0070303F1080294F81890D4F800B0CA
:104B2000C8F80020D3E90023C4E91223D4E9128A8B
:104B30002AF000430B934FF0FF3240469C4B0B99F9
:104B4000FBF764FF70BB4FF0FF324046984B0B9968
:104B5000FBF73EFF30BB0022002340465146FBF7E7
:104B60002DFF10B12D2384F84330924B9248B9F1B8
:104B7000470F94BF9846804603234FF0000A2361F5
:104B80002BF00403236033462146284600970FAAE2
:104B900000F0D4F9013040F090804FF0FF3011B0B8
:104BA000BDE8F08F4246534640465146FBF72EFF84
:104BB00048B1BAF1000FB8BF2D238048B8BF84F8C0
:104BC00043307F4BD3E7636809F0DF015A1C42D1C1
:104BD00006236360002206920EAACDE904920DAA74
:104BE0004BF4806303920DF13302CDE9013223606F
:104BF000636842460093284653460B91FFF7D4FE64
:104C00000B99804647290D9908D1C81C02DB6368BF
:104C1000994240DDA9F102095FFA89F9B9F1650FFE
:104C20001FD84A46013904F150000D91FFF71BFFD0
:104C30000E9A82461318012A236102DC2268D207E9
:104C400001D5013323619DF83330002B9BD02D23F8
:104C500084F8433097E74729BCD1002BBAD1012310
:104C6000B7E7B9F1660F18D1002963680BDD216140
:104C700013B92268D00702D501330B4423614FF0EA
:104C8000000AA165DFE713B92268D20701D5023314
:104C9000F4E70123F2E74FF067090E9B994205DB29
:104CA00023682161D807EAD54B1CE7E70029CCBF70
:104CB0000122C1F102021344E0E723685A0507D438
:104CC0002369424631462846B84701302BD164E774
:104CD000B9F1650F40F2DD80D4E912010022002312
:104CE000FBF762FE002833D0012331462846354ABF
:104CF000B84701303FF451AFDDE90D239A4202DBA2
:104D00002368D8070FD5DDE9092331462846B8477F
:104D100001303FF442AF4FF0000804F11A090E9B36
:104D2000013B434509DC23689B0700F10281E068F1
:104D30000F9B9842B8BF184631E701234A463146D7
:104D40002846B84701303FF428AF08F10108E6E7EC
:104D50000D9B002B38DC012331462846194AB84701
:104D600001303FF41AAFDDE90D23134302D123686C
:104D7000D907D8D5DDE9092331462846B84701309F
:104D80003FF40BAF4FF0000904F11A0A0D9B5B4290
:104D90004B4501DC0E9B94E70123524631462846E1
:104DA000B84701303FF4F9AE09F10109EEE700BF61
:104DB000FFFFEF7F40780008447800084C78000837
:104DC00048780008507800080E9AA36D9A42A8BF50
:104DD0001A46002A914637DC4FF0000B29EAE979A0
:104DE00004F11A02D4F858A0AAEB09035B4533DC9E
:104DF000DDE90D239A423BDB2368DA0738D40E9BAA
:104E00000D99A3EB0A02A3EB01099145A8BF9146B6
:104E1000B9F1000F34DC4FF0000829EAE97904F118
:104E20001A0ADDE90D239B1AA3EB090343457FF71B
:104E30007AAF0123524631462846B84701303FF445
:104E4000ACAE08F10108ECE713463146424628466D
:104E5000B8470130C0D1A0E60123314628460B9265
:104E6000B84701303FF499AE0B9A0BF1010BB9E74B
:104E70003146DDE909232846B8470130BFD18CE629
:104E80004B463146284608EB0A02B8470130C2D1EA
:104E900083E60E9A012A01DCDB0737D5012342465F
:104EA00031462846B84701303FF477AEDDE90923A3
:104EB00031462846B84701303FF46FAED4E91201BD
:104EC00000220023FBF770FDD8B90E9B08F1010208
:104ED000013B31462846B84701300ED15DE601233B
:104EE0004A4631462846B84701303FF456AE08F1ED
:104EF00001080E9B013B4345F1DC534604F150028F
:104F0000E0E64FF0000804F11A09F2E701234246F7
:104F1000DFE701234A4631462846B84701303FF4CF
:104F20003CAE08F10108E3680F995B1A4345F0DCD9
:104F3000FDE64FF0000804F11909F4E72DE9F04708
:104F4000164699468A680B6907469342B8BF1346CE
:104F5000336091F843200C46DDF820800AB101331C
:104F600033602368990642BF336802333360256893
:104F700015F0060506D104F1190AE36832689B1A98
:104F8000AB4228DC94F84320131E226818BF01238B
:104F900092062DD44946384604F14302C0470130F9
:104FA00020D02368E56803F00603042B18BF002512
:104FB00032684FF00006A36808BFAD1A226908BF27
:104FC00025EAE5759342C4BF9B1AED181A34B54221
:104FD0001AD1002008E00123524649463846C0470E
:104FE000013003D14FF0FF30BDE8F0870135C4E751
:104FF0003020E11881F843005A1C94F845102244EF
:10500000023382F84310C5E7012322464946384659
:10501000C0470130E6D00136D9E700002DE9FF474F
:105020000F7E9146782F80460C469A460C9D01F1E2
:10503000430207D8622F0AD8002F00F0D980582FDA
:1050400000F0A48004F1420584F842703AE0A7F130
:105050006303152BF6D801A151F823F0B5500008D1
:10506000C950000845500008455000084550000848
:1050700045500008C9500008455000084550000838
:105080004550000845500008D7510008F950000865
:10509000B95100084550000845500008F951000872
:1050A00045500008F95000084550000845500008D8
:1050B000C15100082B681A1D1B682A6004F14205C3
:1050C00084F842300123A4E020682968060601F133
:1050D00004030AD50E682B60002E03DA2D237642D6
:1050E00084F843300A235E4819E00E6810F0400F40
:1050F0002B6018BF36B2EFE72B682068191D2960B6
:10510000010601D51E6802E04606FBD51E886F2FFA
:105110000CBF08230A235248002184F84310656815
:10512000002DA8BF2168A560A4BF21F00401216063
:105130000EB9002D4DD01546B6FBF3F103FB1167F8
:10514000C75D05F8017D3746BB420E46F4D9082BF2
:105150000BD12368DE0708D5236961689942DEBF59
:10516000302305F8013C05F1FF35521B22614B4607
:1051700021464046CDF800A003AAFFF7DFFE01302C
:105180004CD14FF0FF3004B0BDE8F087344881F8CF
:1051900045702968236851F8046B29601D0614D5F1
:1051A000DF0744BF43F0200323601EB9236823F0C8
:1051B000200323601023AFE7236843F0200323601C
:1051C0007823284884F84530E3E7590648BFB6B24B
:1051D000E6E71546BBE72B682668181D616928605D
:1051E00035061B6801D5196002E07006FBD51980F1
:1051F000002315462361BAE72B6800211A1D2A6097
:105200001D686268284600F0D5FE08B1401B60604A
:1052100063682361002384F84330A8E72A4649469F
:1052200040462369D0470130ABD023689B0713D495
:10523000E068039B9842B8BF1846A4E701233246B2
:1052400049464046D04701309BD00135E368039979
:105250005B1AAB42F2DCEBE7002504F11906F5E737
:1052600052780008637800080EB46FF0004100B572
:105270009CB01DAB02900690079104910848094923
:1052800053F8042B0591006802A9019301F07CFBFF
:105290000022029B1A701CB05DF804EB03B070474B
:1052A000180000200802FFFF2DE9F74F03690C6981
:1052B0000746A342C0F28280013C00F1140501F1CF
:1052C000140805EB8403019358F8243055F8242082
:1052D00001339A42B2FBF3F64FEA840B08EB8409E0
:1052E00031D34FF0000E4046AC46F24650F8042B46
:1052F00093B206FB03E3120C4FEA134E9BB206FB7C
:1053000002E2AAEB0303DCF800A04FEA124E1FFAF8
:105310008AFA5344DCF800A092B2C2EB1A4202EBC4
:1053200023429BB243EA024381454FEA224A4CF8AA
:10533000043BDBD255F80B302BB9019B043B9D425B
:105340001A462FD33C61384601F0CEF8002825DB01
:1053500028464FF0000C013658F8041BD0F800E046
:105360008BB2ACEB03031FFA8EF213440A0CC2EBB0
:105370001E4202EB23429BB243EA0243C1454FEA7D
:10538000224C40F8043BE7D255F8242005EB840377
:1053900022B9043B9D421A460AD33C61304603B011
:1053A000BDE8F08F1268043B002ACBD1013CC6E770
:1053B0001268043B002AF0D1013CEBE70020EEE745
:1053C0002DE9F04F16461F46446A99B00546CDE9CF
:1053D0000467DDF8948074B9102000F0E3FD024604
:1053E000686220B9EA21A84BA84801F0DDFBC0E9BA
:1053F00001440460C4606B6A196851B15A680123A2
:1054000093404A608B60284600F030FE00226B6AB1
:105410001A603B1EAFBF0023012223F00043059317
:10542000A8BFC8F80030DDF81490994BB8BFC8F891
:10543000002033EA090319D142F20F73249A136052
:10544000C9F31303334300F07F85269B53B9914B77
:1054500022E0914B03930833269A1360039819B006
:10546000BDE8F08F8B4B03930333F5E7DDE904349C
:10547000CDE90C34DDE90C0100220023FBF794FA9E
:10548000804658B10123249A1360269B002B00F01C
:10549000588582481860431E0393DFE716AB0193DB
:1054A00017AB00932846DDE90C2301F0C5F8C9F3DA
:1054B0000A548346002C7FD0DDE90C010D9BA4F239
:1054C000FF34C3F3130343F07F5141F44011CDF88F
:1054D0004C800022724BFAF747FE65A3D3E9002304
:1054E000FAF7FAFF64A3D3E90023FAF73FFE064672
:1054F00020460F46FAF786FF61A3D3E90023FAF7A7
:10550000EBFF02460B4630463946FAF72FFE0646B9
:105510000F46FBF791FA00228246002330463946B7
:10552000FBF74CFA48B15046FAF76CFF32463B465F
:10553000FBF73AFA08B90AF1FF3ABAF1160F58D850
:10554000DDE90C01574B03EBCA03D3E90023FBF75A
:1055500035FA00284FD000230AF1FF3A0F93169B2B
:105560001C1B631E099349BFC4F10103002306936A
:10557000002354BF06930993BAF1000F3DDB099B4A
:10558000CDF838A05344099300230A93229B092B9A
:1055900000F28C80052BC4BF043B2293229BC8BF22
:1055A0000024A3F10203D8BF0124032B00F28A8058
:1055B000DFE803F02D4F4D5BDDE916431C4404F298
:1055C0003243202BC3BFC3F1400304F2124009FA57
:1055D00003F3C3F12003C6BF26FA00F0184306FA0E
:1055E00003F0FAF7FFFE0123A1F1F871013C1393D8
:1055F0006FE70123B2E70F90B1E7069BA3EB0A0325
:105600000693CAF100030A9300230E93BEE700231A
:105610000B93239B002B58DC4FF001094B46CDF830
:105620002090CDF88C900022686A4260042202F13A
:1056300014069E4241684ED9284600F0D7FC0390DC
:1056400000284CD102464FF4D571174BCCE601230C
:10565000DEE700230B93239B0AEB030909F1010307
:10566000012B0893B8BF0123DDE70123F2E700BF58
:1056700061436F63A787D23FB3C8608B288AC63F58
:10568000FB799F501344D33F817800089878000835
:105690000000F07F7D7800087478000851780008D9
:1056A0000000F83F88790008F378000801240023FF
:1056B0000B9422934FF0FF3900221223CDF8209053
:1056C0002392B0E701230B93F4E7DDF88C904B466F
:1056D000CDF82090A7E7013141605200A7E76B6A3F
:1056E000039A1A60089B0E2B00F2A880002C00F091
:1056F000A580BAF1000F34DD9A4A0AF00F0302EBDD
:10570000C3031AF4807FD3E90034CDE910344FEAA3
:105710002A1416D0DDE90C01934B0327D3E90823A3
:10572000FBF704F8CDE9040104F00F048E4E54B9E0
:10573000DDE91023DDE90401FAF7F8FFCDE9040102
:1057400029E00227F2E7E10708D5DDE91001D6E9F3
:105750000023FAF7C1FECDE91001013764100836C5
:10576000E5E700F0A580DDE90C01CAF100047D4BFE
:1057700004F00F0203EBC203D3E90023FAF7ACFEF7
:1057800002270023CDE90401774E2411002C40F0BC
:105790008480002BD2D10F9B002B00F08B80DDE9A1
:1057A0000434CDE91034DDE9100100226F4BFBF722
:1057B00005F900287ED0089B002B7BD0B9F1000FA3
:1057C00038DDDDE910010022694BFAF785FE4C4611
:1057D000CDE904010AF1FF3801373846FAF712FE25
:1057E000DDE90423FAF778FE0022624BFAF7BEFCEB
:1057F000A1F15076CDE910011196002C5DD1DDE9C3
:10580000040100225C4BFAF7AFFC02460B46CDE9DF
:1058100004233346109AFBF7EFF8002840F09C82EF
:10582000DDE90401109A06F10043FBF7C7F80028F0
:1058300040F09082DDE90C34CDE90434179B002B55
:10584000C0F25281BAF10E0F00F34E81454B03EBCB
:10585000CA03D3E90034CDE90634239B002B80F240
:10586000DB80089B002B00F3D78040F07282DDE9DB
:1058700006010022404BFAF72FFEDDE90423FBF777
:10588000B1F8089C2646002840F048823123039F47
:105890000AF1010A07F8013B44E2E20705D5D6E91F
:1058A0000023FAF719FE01230137641008366DE76B
:1058B000022770E7D046089C8FE70399294B2144C3
:1058C00012910B9903EBC403DDE9106753E902233E
:1058D000002955D000202949FAF728FF3B463246D7
:1058E000FAF742FCCDE91001039FDDE90401FBF763
:1058F000A3F80446FAF786FD02460B46DDE90401EB
:10590000FAF732FC02460B463034CDE90423DDE9D8
:10591000102307F8014BFBF751F8002874D1DDE99B
:10592000042300201149FAF71FFCDDE91023FBF7DF
:1059300045F8002840F0B780129B9F423FF47AAFB1
:10594000DDE9100100220A4BFAF7C6FD0022CDE97D
:105950001001DDE90401064BFAF7BEFDCDE90401B3
:10596000C3E700BF88790008607900080000F03FB5
:105970000000244000001C40000014400000E03FF4
:1059800030463946FAF7A8FD129BCDE91001039C79
:105990001493DDE90401FBF74FF81590FAF732FD97
:1059A00002460B46DDE90401FAF7DEFB159B0646CD
:1059B000303304F8013B129B0F469C424FF000022B
:1059C00024D1DDE91001B04BFAF7D0FB02460B46BB
:1059D00030463946FBF710F8002863D1DDE9102383
:1059E0000020A949FAF7C0FB02460B46304639466B
:1059F000FAF7E4FF00283FF41DAF149F7B1E1493B9
:105A000017F8013C302BF8D0C2463BE09F4BFAF729
:105A100063FDCDE90401BCE7039FDDE90489DDE90D
:105A2000062340464946FAF781FEFBF705F804468F
:105A3000FAF7E8FCDDE90623FAF74EFD02460B46CD
:105A400040464946FAF790FB04F1300607F8016B2F
:105A5000039EDDF820C0BE1BB44502460B4636D17E
:105A6000FAF784FBDDE9062380468946FAF7C4FF8E
:105A700058BBDDE9062340464946FAF795FF08B1D1
:105A8000E10722D42846594600F0F0FA00233B7083
:105A9000249B0AF101001860269B002B3FF4DEAC2A
:105AA0001F60DBE427463B461F4613F8012D392AC9
:105AB00007D1039A9A42F7D13022039908F10108DD
:105AC0000A701A7801321A709EE7D046EBE700227E
:105AD0006E4BFAF701FD0022002380468946FAF753
